{
  "contractName": "ItemManager",
  "abi": [
    {
      "anonymous": false,
      "inputs": [
        {
          "indexed": false,
          "internalType": "uint256",
          "name": "_itemIndex",
          "type": "uint256"
        },
        {
          "indexed": false,
          "internalType": "uint256",
          "name": "_step",
          "type": "uint256"
        },
        {
          "indexed": false,
          "internalType": "address",
          "name": "_address",
          "type": "address"
        }
      ],
      "name": "SupplyChainStep",
      "type": "event"
    },
    {
      "inputs": [],
      "name": "_owner",
      "outputs": [
        {
          "internalType": "address",
          "name": "",
          "type": "address"
        }
      ],
      "stateMutability": "view",
      "type": "function",
      "constant": true
    },
    {
      "inputs": [],
      "name": "index",
      "outputs": [
        {
          "internalType": "uint256",
          "name": "",
          "type": "uint256"
        }
      ],
      "stateMutability": "view",
      "type": "function",
      "constant": true
    },
    {
      "inputs": [],
      "name": "isOwner",
      "outputs": [
        {
          "internalType": "bool",
          "name": "",
          "type": "bool"
        }
      ],
      "stateMutability": "view",
      "type": "function",
      "constant": true
    },
    {
      "inputs": [
        {
          "internalType": "uint256",
          "name": "",
          "type": "uint256"
        }
      ],
      "name": "items",
      "outputs": [
        {
          "internalType": "contract Item",
          "name": "_item",
          "type": "address"
        },
        {
          "internalType": "enum ItemManager.SupplyChainSteps",
          "name": "_step",
          "type": "uint8"
        },
        {
          "internalType": "string",
          "name": "_identifier",
          "type": "string"
        },
        {
          "internalType": "uint256",
          "name": "_id",
          "type": "uint256"
        },
        {
          "internalType": "uint256",
          "name": "_cost",
          "type": "uint256"
        }
      ],
      "stateMutability": "view",
      "type": "function",
      "constant": true
    },
    {
      "inputs": [
        {
          "internalType": "string",
          "name": "_identifier",
          "type": "string"
        },
        {
          "internalType": "uint256",
          "name": "_priceInWei",
          "type": "uint256"
        }
      ],
      "name": "createItem",
      "outputs": [],
      "stateMutability": "nonpayable",
      "type": "function"
    },
    {
      "inputs": [
        {
          "internalType": "uint256",
          "name": "_index",
          "type": "uint256"
        }
      ],
      "name": "triggerPayment",
      "outputs": [],
      "stateMutability": "payable",
      "type": "function",
      "payable": true
    },
    {
      "inputs": [
        {
          "internalType": "uint256",
          "name": "_index",
          "type": "uint256"
        }
      ],
      "name": "triggerDelivery",
      "outputs": [],
      "stateMutability": "nonpayable",
      "type": "function"
    }
  ],
  "bytecode": "0x608060405234801561001057600080fd5b50336000806101000a81548173ffffffffffffffffffffffffffffffffffffffff021916908373ffffffffffffffffffffffffffffffffffffffff160217905550611b33806100606000396000f3fe6080604052600436106200007a5760003560e01c80638f32d59b11620000555780638f32d59b14620000fd578063b2bdfa7b146200012d578063bfb231d2146200015d578063cd31831e14620001a5576200007a565b80632986c0e5146200007f578063800fb83f14620000af5780638c55174214620000cf575b600080fd5b3480156200008c57600080fd5b5062000097620001d3565b604051620000a6919062000edc565b60405180910390f35b620000cd6004803603810190620000c7919062000bd2565b620001d9565b005b348015620000dc57600080fd5b50620000fb6004803603810190620000f5919062000b6c565b62000498565b005b3480156200010a57600080fd5b5062000115620006c5565b60405162000124919062000d96565b60405180910390f35b3480156200013a57600080fd5b50620001456200071c565b60405162000154919062000d79565b60405180910390f35b3480156200016a57600080fd5b5062000189600480360381019062000183919062000bd2565b62000740565b6040516200019c95949392919062000df0565b60405180910390f35b348015620001b257600080fd5b50620001d16004803603810190620001cb919062000bd2565b62000833565b005b60025481565b60006001600083815260200190815260200160002060000160009054906101000a900473ffffffffffffffffffffffffffffffffffffffff1690503373ffffffffffffffffffffffffffffffffffffffff168173ffffffffffffffffffffffffffffffffffffffff161462000285576040517f08c379a00000000000000000000000000000000000000000000000000000000081526004016200027c9062000e98565b60405180910390fd5b348173ffffffffffffffffffffffffffffffffffffffff16633c8da5886040518163ffffffff1660e01b815260040160206040518083038186803b158015620002cd57600080fd5b505afa158015620002e2573d6000803e3d6000fd5b505050506040513d601f19601f8201168201806040525081019062000308919062000c04565b146200034b576040517f08c379a0000000000000000000000000000000000000000000000000000000008152600401620003429062000e76565b60405180910390fd5b60006002811115620003625762000361620011b6565b5b6001600084815260200190815260200160002060000160149054906101000a900460ff1660028111156200039b576200039a620011b6565b5b14620003de576040517f08c379a0000000000000000000000000000000000000000000000000000000008152600401620003d59062000eba565b60405180910390fd5b600180600084815260200190815260200160002060000160146101000a81548160ff021916908360028111156200041a5762000419620011b6565b5b02179055507fa4035636e99f06b7651a604c1019fa4e8779fe68ef27eeb74dff2de348f6199b826001600085815260200190815260200160002060000160149054906101000a900460ff1660028111156200047a5762000479620011b6565b5b836040516200048c9392919062000ef9565b60405180910390a15050565b620004a2620006c5565b620004e4576040517f08c379a0000000000000000000000000000000000000000000000000000000008152600401620004db9062000e54565b60405180910390fd5b60003082600254604051620004f99062000a02565b620005079392919062000db3565b604051809103906000f08015801562000524573d6000803e3d6000fd5b5090508060016000600254815260200190815260200160002060000160006101000a81548173ffffffffffffffffffffffffffffffffffffffff021916908373ffffffffffffffffffffffffffffffffffffffff160217905550600060016000600254815260200190815260200160002060000160146101000a81548160ff02191690836002811115620005bd57620005bc620011b6565b5b0217905550826001600060025481526020019081526020016000206001019080519060200190620005f092919062000a10565b506002546001600060025481526020019081526020016000206002018190555081600160006002548152602001908152602001600020600301819055507fa4035636e99f06b7651a604c1019fa4e8779fe68ef27eeb74dff2de348f6199b60025460016000600254815260200190815260200160002060000160149054906101000a900460ff1660028111156200068c576200068b620011b6565b5b836040516200069e9392919062000ef9565b60405180910390a160026000815480929190620006bb9062001139565b9190505550505050565b60008060009054906101000a900473ffffffffffffffffffffffffffffffffffffffff1673ffffffffffffffffffffffffffffffffffffffff163373ffffffffffffffffffffffffffffffffffffffff1614905090565b60008054906101000a900473ffffffffffffffffffffffffffffffffffffffff1681565b60016020528060005260406000206000915090508060000160009054906101000a900473ffffffffffffffffffffffffffffffffffffffff16908060000160149054906101000a900460ff16908060010180546200079e90620010cd565b80601f0160208091040260200160405190810160405280929190818152602001828054620007cc90620010cd565b80156200081d5780601f10620007f1576101008083540402835291602001916200081d565b820191906000526020600020905b815481529060010190602001808311620007ff57829003601f168201915b5050505050908060020154908060030154905085565b6200083d620006c5565b6200087f576040517f08c379a0000000000000000000000000000000000000000000000000000000008152600401620008769062000e54565b60405180910390fd5b60016002811115620008965762000895620011b6565b5b6001600083815260200190815260200160002060000160149054906101000a900460ff166002811115620008cf57620008ce620011b6565b5b1462000912576040517f08c379a0000000000000000000000000000000000000000000000000000000008152600401620009099062000eba565b60405180910390fd5b60026001600083815260200190815260200160002060000160146101000a81548160ff021916908360028111156200094f576200094e620011b6565b5b02179055507fa4035636e99f06b7651a604c1019fa4e8779fe68ef27eeb74dff2de348f6199b816001600084815260200190815260200160002060000160149054906101000a900460ff166002811115620009af57620009ae620011b6565b5b6001600085815260200190815260200160002060000160009054906101000a900473ffffffffffffffffffffffffffffffffffffffff16604051620009f79392919062000ef9565b60405180910390a150565b610774806200138a83390190565b82805462000a1e90620010cd565b90600052602060002090601f01602090048101928262000a42576000855562000a8e565b82601f1062000a5d57805160ff191683800117855562000a8e565b8280016001018555821562000a8e579182015b8281111562000a8d57825182559160200191906001019062000a70565b5b50905062000a9d919062000aa1565b5090565b5b8082111562000abc57600081600090555060010162000aa2565b5090565b600062000ad762000ad18462000f5f565b62000f36565b90508281526020810184848401111562000af65762000af562001248565b5b62000b0384828562001088565b509392505050565b600082601f83011262000b235762000b2262001243565b5b813562000b3584826020860162000ac0565b91505092915050565b60008135905062000b4f816200136f565b92915050565b60008151905062000b66816200136f565b92915050565b6000806040838503121562000b865762000b8562001252565b5b600083013567ffffffffffffffff81111562000ba75762000ba66200124d565b5b62000bb58582860162000b0b565b925050602062000bc88582860162000b3e565b9150509250929050565b60006020828403121562000beb5762000bea62001252565b5b600062000bfb8482850162000b3e565b91505092915050565b60006020828403121562000c1d5762000c1c62001252565b5b600062000c2d8482850162000b55565b91505092915050565b62000c418162000fb1565b82525050565b62000c528162000fc5565b82525050565b62000c638162001010565b82525050565b62000c748162001024565b82525050565b62000c858162001038565b82525050565b600062000c988262000f95565b62000ca4818562000fa0565b935062000cb681856020860162001097565b62000cc18162001257565b840191505092915050565b600062000cdb60208362000fa0565b915062000ce88262001268565b602082019050919050565b600062000d0260128362000fa0565b915062000d0f8262001291565b602082019050919050565b600062000d29602b8362000fa0565b915062000d3682620012ba565b604082019050919050565b600062000d5060238362000fa0565b915062000d5d8262001309565b604082019050919050565b62000d738162001006565b82525050565b600060208201905062000d90600083018462000c36565b92915050565b600060208201905062000dad600083018462000c47565b92915050565b600060608201905062000dca600083018662000c58565b62000dd9602083018562000d68565b62000de8604083018462000d68565b949350505050565b600060a08201905062000e07600083018862000c69565b62000e16602083018762000c7a565b818103604083015262000e2a818662000c8b565b905062000e3b606083018562000d68565b62000e4a608083018462000d68565b9695505050505050565b6000602082019050818103600083015262000e6f8162000ccc565b9050919050565b6000602082019050818103600083015262000e918162000cf3565b9050919050565b6000602082019050818103600083015262000eb38162000d1a565b9050919050565b6000602082019050818103600083015262000ed58162000d41565b9050919050565b600060208201905062000ef3600083018462000d68565b92915050565b600060608201905062000f10600083018662000d68565b62000f1f602083018562000d68565b62000f2e604083018462000c36565b949350505050565b600062000f4262000f55565b905062000f50828262001103565b919050565b6000604051905090565b600067ffffffffffffffff82111562000f7d5762000f7c62001214565b5b62000f888262001257565b9050602081019050919050565b600081519050919050565b600082825260208201905092915050565b600062000fbe8262000fe6565b9050919050565b60008115159050919050565b600081905062000fe18262001358565b919050565b600073ffffffffffffffffffffffffffffffffffffffff82169050919050565b6000819050919050565b60006200101d826200104c565b9050919050565b6000620010318262001060565b9050919050565b6000620010458262000fd1565b9050919050565b6000620010598262001074565b9050919050565b60006200106d8262001074565b9050919050565b6000620010818262000fe6565b9050919050565b82818337600083830152505050565b60005b83811015620010b75780820151818401526020810190506200109a565b83811115620010c7576000848401525b50505050565b60006002820490506001821680620010e657607f821691505b60208210811415620010fd57620010fc620011e5565b5b50919050565b6200110e8262001257565b810181811067ffffffffffffffff8211171562001130576200112f62001214565b5b80604052505050565b6000620011468262001006565b91507fffffffffffffffffffffffffffffffffffffffffffffffffffffffffffffffff8214156200117c576200117b62001187565b5b600182019050919050565b7f4e487b7100000000000000000000000000000000000000000000000000000000600052601160045260246000fd5b7f4e487b7100000000000000000000000000000000000000000000000000000000600052602160045260246000fd5b7f4e487b7100000000000000000000000000000000000000000000000000000000600052602260045260246000fd5b7f4e487b7100000000000000000000000000000000000000000000000000000000600052604160045260246000fd5b600080fd5b600080fd5b600080fd5b600080fd5b6000601f19601f8301169050919050565b7f4f776e61626c653a2063616c6c6572206973206e6f7420746865206f776e6572600082015250565b7f4e6f742066756c6c792070616964207965740000000000000000000000000000600082015250565b7f4f6e6c79206974656d732061726520616c6c6f77656420746f2075706461746560008201527f207468656d73656c766573000000000000000000000000000000000000000000602082015250565b7f4974656d206973206675727468657220696e2074686520737570706c7920636860008201527f61696e0000000000000000000000000000000000000000000000000000000000602082015250565b600381106200136c576200136b620011b6565b5b50565b6200137a8162001006565b81146200138657600080fd5b5056fe608060405234801561001057600080fd5b50604051610774380380610774833981810160405281019061003291906100b3565b816000819055508060028190555082600360006101000a81548173ffffffffffffffffffffffffffffffffffffffff021916908373ffffffffffffffffffffffffffffffffffffffff160217905550505050610187565b60008151905061009881610159565b92915050565b6000815190506100ad81610170565b92915050565b6000806000606084860312156100cc576100cb610154565b5b60006100da86828701610089565b93505060206100eb8682870161009e565b92505060406100fc8682870161009e565b9150509250925092565b60006101118261012a565b9050919050565b600061012382610106565b9050919050565b600073ffffffffffffffffffffffffffffffffffffffff82169050919050565b6000819050919050565b600080fd5b61016281610118565b811461016d57600080fd5b50565b6101798161014a565b811461018457600080fd5b50565b6105de806101966000396000f3fe6080604052600436106100385760003560e01c80632986c0e5146102505780633c8da5881461027b57806383d12eef146102a657610241565b36610241576000543414610081576040517f08c379a0000000000000000000000000000000000000000000000000000000008152600401610078906103c3565b60405180910390fd5b6000600154146100c6576040517f08c379a00000000000000000000000000000000000000000000000000000000081526004016100bd906103a3565b60405180910390fd5b34600160008282546100d89190610445565b925050819055506000600360009054906101000a900473ffffffffffffffffffffffffffffffffffffffff1673ffffffffffffffffffffffffffffffffffffffff163460025460405160240161012e9190610403565b6040516020818303038152906040527f800fb83f000000000000000000000000000000000000000000000000000000007bffffffffffffffffffffffffffffffffffffffffffffffffffffffff19166020820180517bffffffffffffffffffffffffffffffffffffffffffffffffffffffff83818316178352505050506040516101b8919061038c565b60006040518083038185875af1925050503d80600081146101f5576040519150601f19603f3d011682016040523d82523d6000602084013e6101fa565b606091505b505090508061023e576040517f08c379a0000000000000000000000000000000000000000000000000000000008152600401610235906103e3565b60405180910390fd5b50005b34801561024d57600080fd5b50005b34801561025c57600080fd5b506102656102d1565b6040516102729190610403565b60405180910390f35b34801561028757600080fd5b506102906102d7565b60405161029d9190610403565b60405180910390f35b3480156102b257600080fd5b506102bb6102dd565b6040516102c89190610403565b60405180910390f35b60025481565b60005481565b60015481565b60006102ee8261041e565b6102f88185610429565b93506103088185602086016104a5565b80840191505092915050565b6000610321601583610434565b915061032c82610507565b602082019050919050565b6000610344602183610434565b915061034f82610530565b604082019050919050565b6000610367601583610434565b91506103728261057f565b602082019050919050565b6103868161049b565b82525050565b600061039882846102e3565b915081905092915050565b600060208201905081810360008301526103bc81610314565b9050919050565b600060208201905081810360008301526103dc81610337565b9050919050565b600060208201905081810360008301526103fc8161035a565b9050919050565b6000602082019050610418600083018461037d565b92915050565b600081519050919050565b600081905092915050565b600082825260208201905092915050565b60006104508261049b565b915061045b8361049b565b9250827fffffffffffffffffffffffffffffffffffffffffffffffffffffffffffffffff038211156104905761048f6104d8565b5b828201905092915050565b6000819050919050565b60005b838110156104c35780820151818401526020810190506104a8565b838111156104d2576000848401525b50505050565b7f4e487b7100000000000000000000000000000000000000000000000000000000600052601160045260246000fd5b7f4974656d20697320616c72656164792070616964210000000000000000000000600082015250565b7f576520646f6e277420737570706f7274207061727469616c207061796d656e7460008201527f7300000000000000000000000000000000000000000000000000000000000000602082015250565b7f44656c697665727920646964206e6f7420776f726b000000000000000000000060008201525056fea2646970667358221220fc2d223a4308445afc646554773e9da97fd0716c0a79c348a18982e7b5c2ce0264736f6c63430008070033a26469706673582212204467085382248024df91b80c56adcb9346e72ccd49c7de46994f7c27336d90f664736f6c63430008070033",
  "immutableReferences": {},
  "source": "//SPDX-License-Identifier: MIT\r\n\r\npragma solidity ^0.8.4;\r\n\r\nimport \"./Item.sol\";\r\nimport \"./Ownable.sol\";\r\n\r\ncontract ItemManager is Ownable {\r\n\r\n    struct S_Item {\r\n        Item _item;\r\n        ItemManager.SupplyChainSteps _step;\r\n        string _identifier;\r\n        uint _id;\r\n        uint _cost;\r\n    }\r\n    mapping(uint => S_Item) public items;\r\n    uint public index;\r\n\r\n    enum SupplyChainSteps {Created, Paid, Delivered}\r\n\r\n    event SupplyChainStep(uint _itemIndex, uint _step, address _address);\r\n\r\n    function createItem(string memory _identifier, uint _priceInWei) public onlyOwner {\r\n        Item item = new Item(this, _priceInWei, index);\r\n        items[index]._item = item;\r\n        items[index]._step = SupplyChainSteps.Created;\r\n        items[index]._identifier = _identifier;\r\n        items[index]._id = index;\r\n        items[index]._cost = _priceInWei;\r\n        emit SupplyChainStep(index, uint(items[index]._step), address(item));\r\n        index++;\r\n    }\r\n\r\n    function triggerPayment(uint _index) public payable {\r\n        Item item = items[_index]._item;\r\n        require(address(item) == msg.sender, \"Only items are allowed to update themselves\");\r\n        require(item.priceInWei() == msg.value, \"Not fully paid yet\");\r\n        require(items[_index]._step == SupplyChainSteps.Created, \"Item is further in the supply chain\");\r\n        items[_index]._step = SupplyChainSteps.Paid;\r\n        emit SupplyChainStep(_index, uint(items[_index]._step), address(item));\r\n    }\r\n\r\n    function triggerDelivery(uint _index) public onlyOwner {\r\n        require(items[_index]._step == SupplyChainSteps.Paid, \"Item is further in the supply chain\");\r\n        items[_index]._step = SupplyChainSteps.Delivered;\r\n        emit SupplyChainStep(_index, uint(items[_index]._step), address(items[_index]._item));\r\n    }\r\n}",
  "sourcePath": "C:\\Users\\vinic\\Documents\\EthereumBlockchainDeveloperBootcamp\\inventoryonchain\\contracts\\ItemManager.sol",
  "compiler": {
    "name": "solc",
    "version": "0.8.7+commit.e28d00a7.Emscripten.clang"
  },
  "schemaVersion": "3.4.2",
  "updatedAt": "2021-08-16T21:09:31.724Z",
  "networkType": "ethereum",
  "devdoc": {
    "kind": "dev",
    "methods": {
      "isOwner()": {
        "details": "Returns true if the caller is the current owner."
      }
    },
    "version": 1
  },
  "userdoc": {
    "kind": "user",
    "methods": {},
    "version": 1
  }
}